{
  "contractName": "Verification",
  "abi": [
    {
      "constant": true,
      "inputs": [
        {
          "name": "",
          "type": "uint256"
        }
      ],
      "name": "signatures",
      "outputs": [
        {
          "name": "",
          "type": "string"
        }
      ],
      "payable": false,
      "stateMutability": "view",
      "type": "function"
    },
    {
      "inputs": [],
      "payable": false,
      "stateMutability": "nonpayable",
      "type": "constructor"
    },
    {
      "constant": false,
      "inputs": [
        {
          "name": "_bankAccount",
          "type": "uint256"
        },
        {
          "name": "_signature",
          "type": "string"
        }
      ],
      "name": "addCustomerSignature",
      "outputs": [],
      "payable": false,
      "stateMutability": "nonpayable",
      "type": "function"
    },
    {
      "constant": true,
      "inputs": [
        {
          "name": "_bankAccount",
          "type": "uint256"
        }
      ],
      "name": "getCustomerSignature",
      "outputs": [
        {
          "name": "",
          "type": "string"
        }
      ],
      "payable": false,
      "stateMutability": "view",
      "type": "function"
    },
    {
      "constant": false,
      "inputs": [
        {
          "name": "_message",
          "type": "string"
        },
        {
          "name": "_account",
          "type": "address"
        },
        {
          "name": "_signature",
          "type": "string"
        }
      ],
      "name": "verifyCustomerSignature",
      "outputs": [
        {
          "name": "",
          "type": "bool"
        }
      ],
      "payable": false,
      "stateMutability": "nonpayable",
      "type": "function"
    }
  ],
  "bytecode": "0x608060405234801561001057600080fd5b50610b9a806100206000396000f300608060405260043610610062576000357c0100000000000000000000000000000000000000000000000000000000900463ffffffff1680630aa62e19146100675780637c8bb47f1461010d5780638be10194146101f4578063f4b7be591461029a575b600080fd5b34801561007357600080fd5b506100926004803603810190808035906020019092919050505061030d565b6040518080602001828103825283818151815260200191508051906020019080838360005b838110156100d25780820151818401526020810190506100b7565b50505050905090810190601f1680156100ff5780820380516001836020036101000a031916815260200191505b509250505060405180910390f35b34801561011957600080fd5b506101da600480360381019080803590602001908201803590602001908080601f0160208091040260200160405190810160405280939291908181526020018383808284378201915050505050509192919290803573ffffffffffffffffffffffffffffffffffffffff169060200190929190803590602001908201803590602001908080601f01602080910402602001604051908101604052809392919081815260200183838082843782019150505050505091929192905050506103c1565b604051808215151515815260200191505060405180910390f35b34801561020057600080fd5b5061021f600480360381019080803590602001909291905050506106ca565b6040518080602001828103825283818151815260200191508051906020019080838360005b8381101561025f578082015181840152602081019050610244565b50505050905090810190601f16801561028c5780820380516001836020036101000a031916815260200191505b509250505060405180910390f35b3480156102a657600080fd5b5061030b60048036038101908080359060200190929190803590602001908201803590602001908080601f016020809104026020016040519081016040528093929190818152602001838380828437820191505050505050919291929050505061077a565b005b60606000808381526020019081526020016000208054600181600116156101000203166002900480601f0160208091040260200160405190810160405280929190818152602001828054600181600116156101000203166002900480156103b55780601f1061038a576101008083540402835291602001916103b5565b820191906000526020600020905b81548152906001019060200180831161039857829003601f168201915b50505050509050919050565b6000606080606060008060008060006103e7608260028c6107a59092919063ffffffff16565b9950610447610403604060008d6107a59092919063ffffffff16565b6040805190810160405280600281526020017f30780000000000000000000000000000000000000000000000000000000000008152506108c490919063ffffffff16565b97506104a66104626040808d6107a59092919063ffffffff16565b6040805190810160405280600281526020017f30780000000000000000000000000000000000000000000000000000000000008152506108c490919063ffffffff16565b96506104bf600260808c6107a59092919063ffffffff16565b95506104ca88610a9e565b94506104d587610a9e565b935073__Integers______________________________6342346c5e876040518263ffffffff167c01000000000000000000000000000000000000000000000000000000000281526004018080602001828103825283818151815260200191508051906020019080838360005b8381101561055d578082015181840152602081019050610542565b50505050905090810190601f16801561058a5780820380516001836020036101000a031916815260200191505b509250505060206040518083038186803b1580156105a757600080fd5b505af41580156105bb573d6000803e3d6000fd5b505050506040513d60208110156105d157600080fd5b810190808051906020019092919050505092506000915060008314156105fa57601b91506105ff565b601c91505b6106088c610a9e565b9050600181838787604051600081526020016040526040518085600019166000191681526020018460ff1660ff1681526020018360001916600019168152602001826000191660001916815260200194505050505060206040516020810390808403906000865af1158015610681573d6000803e3d6000fd5b5050506020604051035173ffffffffffffffffffffffffffffffffffffffff168b73ffffffffffffffffffffffffffffffffffffffff1614985050505050505050509392505050565b60006020528060005260406000206000915090508054600181600116156101000203166002900480601f0160208091040260200160405190810160405280929190818152602001828054600181600116156101000203166002900480156107725780601f1061074757610100808354040283529160200191610772565b820191906000526020600020905b81548152906001019060200180831161075557829003601f168201915b505050505081565b8060008084815260200190815260200160002090805190602001906107a0929190610ac9565b505050565b6060806060806000808894508451888801111515156107c057fe5b876040519080825280601f01601f1916602001820160405280156107f35781602001602082028038833980820191505090505b509350839250600091508690505b8787018110156108b557848181518110151561081957fe5b9060200101517f010000000000000000000000000000000000000000000000000000000000000090047f010000000000000000000000000000000000000000000000000000000000000002838380600101945081518110151561087857fe5b9060200101907effffffffffffffffffffffffffffffffffffffffffffffffffffffffffffff1916908160001a9053508080600101915050610801565b82955050505050509392505050565b6060806060806060600080889550879450600085511115156108e257fe5b84518651016040519080825280601f01601f1916602001820160405280156109195781602001602082028038833980820191505090505b509350839250600091505b85518210156109d757858281518110151561093b57fe5b9060200101517f010000000000000000000000000000000000000000000000000000000000000090047f010000000000000000000000000000000000000000000000000000000000000002838280600101935081518110151561099a57fe5b9060200101907effffffffffffffffffffffffffffffffffffffffffffffffffffffffffffff1916908160001a9053508180600101925050610924565b600091505b8451821015610a8f5784828151811015156109f357fe5b9060200101517f010000000000000000000000000000000000000000000000000000000000000090047f0100000000000000000000000000000000000000000000000000000000000000028382806001019350815181101515610a5257fe5b9060200101907effffffffffffffffffffffffffffffffffffffffffffffffffffffffffffff1916908160001a90535081806001019250506109dc565b82965050505050505092915050565b60006060829050600081511415610abb5760006001029150610ac3565b602083015191505b50919050565b828054600181600116156101000203166002900490600052602060002090601f016020900481019282601f10610b0a57805160ff1916838001178555610b38565b82800160010185558215610b38579182015b82811115610b37578251825591602001919060010190610b1c565b5b509050610b459190610b49565b5090565b610b6b91905b80821115610b67576000816000905550600101610b4f565b5090565b905600a165627a7a72305820bcca622cc0fb252ec8a644440622571f531985c192122b99146bf08976e2cc970029",
  "source": "pragma solidity ^0.4.0;\nimport \"./Strings.sol\";\nimport \"./Integers.sol\";\n\ncontract Verification {\n    \n    using Strings for *;\n    using Integers for uint;\n\n    mapping(uint256 => string) public signatures;\n\n    function Verification () public {\n        \n    }\n\n    function addCustomerSignature (uint256 _bankAccount, string _signature) public {        \n        signatures[_bankAccount] = _signature;\n    }\n\n    function getCustomerSignature (uint256 _bankAccount) public view returns (string) {        \n        return signatures[_bankAccount];\n    }\n\n    function verifyCustomerSignature (string _message, address _account, string _signature) public  returns (bool) {\n        _signature = _signature._substring(130,2); //remove 0x\n        string memory rs = \"0x\".concat(_signature._substring(64, 0));\n        string memory ss = \"0x\".concat(_signature._substring(64, 64));\n        string memory vs = _signature._substring(2, 128);\n        bytes32 r = stringToBytes32(rs);\n        bytes32 s = stringToBytes32(ss);\n        uint vi = Integers.parseInt(vs);\n        uint8 v = 0;\n        if (vi == 0) {\n            v = 27;\n        } else {\n            v = 28;\n        }\n        bytes32 _messageBytes = stringToBytes32(_message);\n        return _account == ecrecover(_messageBytes, v, r, s);\n    }\n    \n    function stringToBytes32(string memory source) private pure returns (bytes32 result) {\n        bytes memory tempEmptyStringTest = bytes(source);\n        if (tempEmptyStringTest.length == 0) {\n            return 0x0;\n        }\n        assembly {\n            result := mload(add(source, 32))\n        }\n    }\n\n}\n",
  "sourcePath": "/Users/ananya/Desktop/web3/Group_8_Project/contracts/Verification.sol",
  "compiler": {
    "name": "solc",
    "version": "0.4.26+commit.4563c3fc.Emscripten.clang"
  },
  "schemaVersion": "3.4.11",
  "updatedAt": "2022-12-04T06:33:22.619Z",
  "networkType": "ethereum",
  "devdoc": {
    "methods": {}
  },
  "userdoc": {
    "methods": {}
  }
}